{
  "address": "0xC328930Ff5778F1f9180E739bDa891d49bb2CBA1",
  "abi": [
    {
      "inputs": [],
      "stateMutability": "nonpayable",
      "type": "constructor"
    },
    {
      "anonymous": false,
      "inputs": [
        {
          "indexed": true,
          "internalType": "address",
          "name": "account",
          "type": "address"
        },
        {
          "indexed": true,
          "internalType": "address",
          "name": "operator",
          "type": "address"
        },
        {
          "indexed": false,
          "internalType": "bool",
          "name": "approved",
          "type": "bool"
        }
      ],
      "name": "ApprovalForAll",
      "type": "event"
    },
    {
      "anonymous": false,
      "inputs": [
        {
          "indexed": true,
          "internalType": "bytes32",
          "name": "role",
          "type": "bytes32"
        },
        {
          "indexed": true,
          "internalType": "bytes32",
          "name": "previousAdminRole",
          "type": "bytes32"
        },
        {
          "indexed": true,
          "internalType": "bytes32",
          "name": "newAdminRole",
          "type": "bytes32"
        }
      ],
      "name": "RoleAdminChanged",
      "type": "event"
    },
    {
      "anonymous": false,
      "inputs": [
        {
          "indexed": true,
          "internalType": "bytes32",
          "name": "role",
          "type": "bytes32"
        },
        {
          "indexed": true,
          "internalType": "address",
          "name": "account",
          "type": "address"
        },
        {
          "indexed": true,
          "internalType": "address",
          "name": "sender",
          "type": "address"
        }
      ],
      "name": "RoleGranted",
      "type": "event"
    },
    {
      "anonymous": false,
      "inputs": [
        {
          "indexed": true,
          "internalType": "bytes32",
          "name": "role",
          "type": "bytes32"
        },
        {
          "indexed": true,
          "internalType": "address",
          "name": "account",
          "type": "address"
        },
        {
          "indexed": true,
          "internalType": "address",
          "name": "sender",
          "type": "address"
        }
      ],
      "name": "RoleRevoked",
      "type": "event"
    },
    {
      "anonymous": false,
      "inputs": [
        {
          "indexed": true,
          "internalType": "address",
          "name": "operator",
          "type": "address"
        },
        {
          "indexed": true,
          "internalType": "address",
          "name": "from",
          "type": "address"
        },
        {
          "indexed": true,
          "internalType": "address",
          "name": "to",
          "type": "address"
        },
        {
          "indexed": false,
          "internalType": "uint256[]",
          "name": "ids",
          "type": "uint256[]"
        },
        {
          "indexed": false,
          "internalType": "uint256[]",
          "name": "values",
          "type": "uint256[]"
        }
      ],
      "name": "TransferBatch",
      "type": "event"
    },
    {
      "anonymous": false,
      "inputs": [
        {
          "indexed": true,
          "internalType": "address",
          "name": "operator",
          "type": "address"
        },
        {
          "indexed": true,
          "internalType": "address",
          "name": "from",
          "type": "address"
        },
        {
          "indexed": true,
          "internalType": "address",
          "name": "to",
          "type": "address"
        },
        {
          "indexed": false,
          "internalType": "uint256",
          "name": "id",
          "type": "uint256"
        },
        {
          "indexed": false,
          "internalType": "uint256",
          "name": "value",
          "type": "uint256"
        }
      ],
      "name": "TransferSingle",
      "type": "event"
    },
    {
      "anonymous": false,
      "inputs": [
        {
          "indexed": false,
          "internalType": "string",
          "name": "value",
          "type": "string"
        },
        {
          "indexed": true,
          "internalType": "uint256",
          "name": "id",
          "type": "uint256"
        }
      ],
      "name": "URI",
      "type": "event"
    },
    {
      "inputs": [],
      "name": "DEFAULT_ADMIN_ROLE",
      "outputs": [
        {
          "internalType": "bytes32",
          "name": "",
          "type": "bytes32"
        }
      ],
      "stateMutability": "view",
      "type": "function"
    },
    {
      "inputs": [],
      "name": "MINTER_ROLE",
      "outputs": [
        {
          "internalType": "bytes32",
          "name": "",
          "type": "bytes32"
        }
      ],
      "stateMutability": "view",
      "type": "function"
    },
    {
      "inputs": [
        {
          "internalType": "address",
          "name": "account",
          "type": "address"
        },
        {
          "internalType": "uint256",
          "name": "id",
          "type": "uint256"
        }
      ],
      "name": "balanceOf",
      "outputs": [
        {
          "internalType": "uint256",
          "name": "",
          "type": "uint256"
        }
      ],
      "stateMutability": "view",
      "type": "function"
    },
    {
      "inputs": [
        {
          "internalType": "address[]",
          "name": "accounts",
          "type": "address[]"
        },
        {
          "internalType": "uint256[]",
          "name": "ids",
          "type": "uint256[]"
        }
      ],
      "name": "balanceOfBatch",
      "outputs": [
        {
          "internalType": "uint256[]",
          "name": "",
          "type": "uint256[]"
        }
      ],
      "stateMutability": "view",
      "type": "function"
    },
    {
      "inputs": [],
      "name": "contractURI",
      "outputs": [
        {
          "internalType": "string",
          "name": "",
          "type": "string"
        }
      ],
      "stateMutability": "pure",
      "type": "function"
    },
    {
      "inputs": [
        {
          "internalType": "bytes32",
          "name": "role",
          "type": "bytes32"
        }
      ],
      "name": "getRoleAdmin",
      "outputs": [
        {
          "internalType": "bytes32",
          "name": "",
          "type": "bytes32"
        }
      ],
      "stateMutability": "view",
      "type": "function"
    },
    {
      "inputs": [
        {
          "internalType": "bytes32",
          "name": "role",
          "type": "bytes32"
        },
        {
          "internalType": "address",
          "name": "account",
          "type": "address"
        }
      ],
      "name": "grantRole",
      "outputs": [],
      "stateMutability": "nonpayable",
      "type": "function"
    },
    {
      "inputs": [
        {
          "internalType": "bytes32",
          "name": "role",
          "type": "bytes32"
        },
        {
          "internalType": "address",
          "name": "account",
          "type": "address"
        }
      ],
      "name": "hasRole",
      "outputs": [
        {
          "internalType": "bool",
          "name": "",
          "type": "bool"
        }
      ],
      "stateMutability": "view",
      "type": "function"
    },
    {
      "inputs": [
        {
          "internalType": "address",
          "name": "account",
          "type": "address"
        },
        {
          "internalType": "address",
          "name": "operator",
          "type": "address"
        }
      ],
      "name": "isApprovedForAll",
      "outputs": [
        {
          "internalType": "bool",
          "name": "",
          "type": "bool"
        }
      ],
      "stateMutability": "view",
      "type": "function"
    },
    {
      "inputs": [
        {
          "internalType": "address",
          "name": "to",
          "type": "address"
        },
        {
          "internalType": "uint256",
          "name": "amount",
          "type": "uint256"
        },
        {
          "internalType": "string",
          "name": "tokenUri",
          "type": "string"
        }
      ],
      "name": "mint",
      "outputs": [],
      "stateMutability": "nonpayable",
      "type": "function"
    },
    {
      "inputs": [
        {
          "internalType": "bytes32",
          "name": "role",
          "type": "bytes32"
        },
        {
          "internalType": "address",
          "name": "account",
          "type": "address"
        }
      ],
      "name": "renounceRole",
      "outputs": [],
      "stateMutability": "nonpayable",
      "type": "function"
    },
    {
      "inputs": [
        {
          "internalType": "bytes32",
          "name": "role",
          "type": "bytes32"
        },
        {
          "internalType": "address",
          "name": "account",
          "type": "address"
        }
      ],
      "name": "revokeRole",
      "outputs": [],
      "stateMutability": "nonpayable",
      "type": "function"
    },
    {
      "inputs": [
        {
          "internalType": "address",
          "name": "from",
          "type": "address"
        },
        {
          "internalType": "address",
          "name": "to",
          "type": "address"
        },
        {
          "internalType": "uint256[]",
          "name": "ids",
          "type": "uint256[]"
        },
        {
          "internalType": "uint256[]",
          "name": "amounts",
          "type": "uint256[]"
        },
        {
          "internalType": "bytes",
          "name": "data",
          "type": "bytes"
        }
      ],
      "name": "safeBatchTransferFrom",
      "outputs": [],
      "stateMutability": "nonpayable",
      "type": "function"
    },
    {
      "inputs": [
        {
          "internalType": "address",
          "name": "from",
          "type": "address"
        },
        {
          "internalType": "address",
          "name": "to",
          "type": "address"
        },
        {
          "internalType": "uint256",
          "name": "id",
          "type": "uint256"
        },
        {
          "internalType": "uint256",
          "name": "amount",
          "type": "uint256"
        },
        {
          "internalType": "bytes",
          "name": "data",
          "type": "bytes"
        }
      ],
      "name": "safeTransferFrom",
      "outputs": [],
      "stateMutability": "nonpayable",
      "type": "function"
    },
    {
      "inputs": [
        {
          "internalType": "address",
          "name": "operator",
          "type": "address"
        },
        {
          "internalType": "bool",
          "name": "approved",
          "type": "bool"
        }
      ],
      "name": "setApprovalForAll",
      "outputs": [],
      "stateMutability": "nonpayable",
      "type": "function"
    },
    {
      "inputs": [
        {
          "internalType": "bytes4",
          "name": "interfaceId",
          "type": "bytes4"
        }
      ],
      "name": "supportsInterface",
      "outputs": [
        {
          "internalType": "bool",
          "name": "",
          "type": "bool"
        }
      ],
      "stateMutability": "view",
      "type": "function"
    },
    {
      "inputs": [
        {
          "internalType": "uint256",
          "name": "tokenId",
          "type": "uint256"
        }
      ],
      "name": "uri",
      "outputs": [
        {
          "internalType": "string",
          "name": "",
          "type": "string"
        }
      ],
      "stateMutability": "view",
      "type": "function"
    }
  ],
  "transactionHash": "0x9986dfa5633d9524907a8ee227e629ff1f20feacf488a0dc236bc14cf8e16d5a",
  "args": [],
  "numDeployments": 1,
  "solcInputHash": "f54173ed9e27c176b93edea710c36766",
  "bytecode": "0x608060405260405180602001604052806000815250600390805190602001906200002b92919062000235565b503480156200003957600080fd5b5060405180606001604052806037815260200162003c196037913962000065816200009e60201b60201c565b50620000987f9f2df0fed2c77648de5860a4cc508cd0818c85b8b8a1ab4ceeef8d981c8956a633620000ba60201b60201c565b62000349565b8060029080519060200190620000b692919062000235565b5050565b620000cc8282620000d060201b60201c565b5050565b620000e28282620001c260201b60201c565b620001be5760016005600084815260200190815260200160002060000160008373ffffffffffffffffffffffffffffffffffffffff1673ffffffffffffffffffffffffffffffffffffffff16815260200190815260200160002060006101000a81548160ff021916908315150217905550620001636200022d60201b60201c565b73ffffffffffffffffffffffffffffffffffffffff168173ffffffffffffffffffffffffffffffffffffffff16837f2f8788117e7eff1d82e926ec794901d17c78024a50270940304540a733656f0d60405160405180910390a45b5050565b60006005600084815260200190815260200160002060000160008373ffffffffffffffffffffffffffffffffffffffff1673ffffffffffffffffffffffffffffffffffffffff16815260200190815260200160002060009054906101000a900460ff16905092915050565b600033905090565b828054620002439062000314565b90600052602060002090601f016020900481019282620002675760008555620002b3565b82601f106200028257805160ff1916838001178555620002b3565b82800160010185558215620002b3579182015b82811115620002b257825182559160200191906001019062000295565b5b509050620002c29190620002c6565b5090565b5b80821115620002e1576000816000905550600101620002c7565b5090565b7f4e487b7100000000000000000000000000000000000000000000000000000000600052602260045260246000fd5b600060028204905060018216806200032d57607f821691505b602082108103620003435762000342620002e5565b5b50919050565b6138c080620003596000396000f3fe608060405234801561001057600080fd5b506004361061010a5760003560e01c806391d14854116100a2578063d539139311610071578063d5391393146102d9578063d547741f146102f7578063e8a3d48514610313578063e985e9c514610331578063f242432a146103615761010a565b806391d1485414610253578063a217fddf14610283578063a22cb465146102a1578063d3fc9864146102bd5761010a565b80632eb2c2d6116100de5780632eb2c2d6146101cf5780632f2ff15d146101eb57806336568abe146102075780634e1273f4146102235761010a565b8062fdd58e1461010f57806301ffc9a71461013f5780630e89341c1461016f578063248a9ca31461019f575b600080fd5b6101296004803603810190610124919061206d565b61037d565b60405161013691906120bc565b60405180910390f35b6101596004803603810190610154919061212f565b610445565b6040516101669190612177565b60405180910390f35b61018960048036038101906101849190612192565b610457565b6040516101969190612258565b60405180910390f35b6101b960048036038101906101b491906122b0565b61053c565b6040516101c691906122ec565b60405180910390f35b6101e960048036038101906101e49190612504565b61055c565b005b610205600480360381019061020091906125d3565b6105fd565b005b610221600480360381019061021c91906125d3565b61061e565b005b61023d600480360381019061023891906126d6565b6106a1565b60405161024a919061280c565b60405180910390f35b61026d600480360381019061026891906125d3565b6107ba565b60405161027a9190612177565b60405180910390f35b61028b610825565b60405161029891906122ec565b60405180910390f35b6102bb60048036038101906102b6919061285a565b61082c565b005b6102d760048036038101906102d2919061293b565b610842565b005b6102e16108d7565b6040516102ee91906122ec565b60405180910390f35b610311600480360381019061030c91906125d3565b6108fb565b005b61031b61091c565b6040516103289190612258565b60405180910390f35b61034b600480360381019061034691906129aa565b61093c565b6040516103589190612177565b60405180910390f35b61037b600480360381019061037691906129ea565b6109d0565b005b60008073ffffffffffffffffffffffffffffffffffffffff168373ffffffffffffffffffffffffffffffffffffffff16036103ed576040517f08c379a00000000000000000000000000000000000000000000000000000000081526004016103e490612af3565b60405180910390fd5b60008083815260200190815260200160002060008473ffffffffffffffffffffffffffffffffffffffff1673ffffffffffffffffffffffffffffffffffffffff16815260200190815260200160002054905092915050565b600061045082610a71565b9050919050565b6060600060046000848152602001908152602001600020805461047990612b42565b80601f01602080910402602001604051908101604052809291908181526020018280546104a590612b42565b80156104f25780601f106104c7576101008083540402835291602001916104f2565b820191906000526020600020905b8154815290600101906020018083116104d557829003601f168201915b5050505050905060008151116105105761050b83610aeb565b610534565b600381604051602001610524929190612c43565b6040516020818303038152906040525b915050919050565b600060056000838152602001908152602001600020600101549050919050565b610564610b7f565b73ffffffffffffffffffffffffffffffffffffffff168573ffffffffffffffffffffffffffffffffffffffff1614806105aa57506105a9856105a4610b7f565b61093c565b5b6105e9576040517f08c379a00000000000000000000000000000000000000000000000000000000081526004016105e090612cd9565b60405180910390fd5b6105f68585858585610b87565b5050505050565b6106068261053c565b61060f81610ea8565b6106198383610ebc565b505050565b610626610b7f565b73ffffffffffffffffffffffffffffffffffffffff168173ffffffffffffffffffffffffffffffffffffffff1614610693576040517f08c379a000000000000000000000000000000000000000000000000000000000815260040161068a90612d6b565b60405180910390fd5b61069d8282610f9d565b5050565b606081518351146106e7576040517f08c379a00000000000000000000000000000000000000000000000000000000081526004016106de90612dfd565b60405180910390fd5b6000835167ffffffffffffffff8111156107045761070361230c565b5b6040519080825280602002602001820160405280156107325781602001602082028036833780820191505090505b50905060005b84518110156107af5761077f85828151811061075757610756612e1d565b5b602002602001015185838151811061077257610771612e1d565b5b602002602001015161037d565b82828151811061079257610791612e1d565b5b602002602001018181525050806107a890612e7b565b9050610738565b508091505092915050565b60006005600084815260200190815260200160002060000160008373ffffffffffffffffffffffffffffffffffffffff1673ffffffffffffffffffffffffffffffffffffffff16815260200190815260200160002060009054906101000a900460ff16905092915050565b6000801b81565b61083e610837610b7f565b838361107f565b5050565b61086c7f9f2df0fed2c77648de5860a4cc508cd0818c85b8b8a1ab4ceeef8d981c8956a6336107ba565b6108ab576040517f08c379a00000000000000000000000000000000000000000000000000000000081526004016108a290612f0f565b60405180910390fd5b6108c783600084604051806020016040528060008152506111eb565b6108d260008261139b565b505050565b7f9f2df0fed2c77648de5860a4cc508cd0818c85b8b8a1ab4ceeef8d981c8956a681565b6109048261053c565b61090d81610ea8565b6109178383610f9d565b505050565b60606040518060600160405280602d815260200161385e602d9139905090565b6000600160008473ffffffffffffffffffffffffffffffffffffffff1673ffffffffffffffffffffffffffffffffffffffff16815260200190815260200160002060008373ffffffffffffffffffffffffffffffffffffffff1673ffffffffffffffffffffffffffffffffffffffff16815260200190815260200160002060009054906101000a900460ff16905092915050565b6109d8610b7f565b73ffffffffffffffffffffffffffffffffffffffff168573ffffffffffffffffffffffffffffffffffffffff161480610a1e5750610a1d85610a18610b7f565b61093c565b5b610a5d576040517f08c379a0000000000000000000000000000000000000000000000000000000008152600401610a5490612fa1565b60405180910390fd5b610a6a8585858585611407565b5050505050565b60007f7965db0b000000000000000000000000000000000000000000000000000000007bffffffffffffffffffffffffffffffffffffffffffffffffffffffff1916827bffffffffffffffffffffffffffffffffffffffffffffffffffffffff19161480610ae45750610ae3826116a2565b5b9050919050565b606060028054610afa90612b42565b80601f0160208091040260200160405190810160405280929190818152602001828054610b2690612b42565b8015610b735780601f10610b4857610100808354040283529160200191610b73565b820191906000526020600020905b815481529060010190602001808311610b5657829003601f168201915b50505050509050919050565b600033905090565b8151835114610bcb576040517f08c379a0000000000000000000000000000000000000000000000000000000008152600401610bc290613033565b60405180910390fd5b600073ffffffffffffffffffffffffffffffffffffffff168473ffffffffffffffffffffffffffffffffffffffff1603610c3a576040517f08c379a0000000000000000000000000000000000000000000000000000000008152600401610c31906130c5565b60405180910390fd5b6000610c44610b7f565b9050610c54818787878787611784565b60005b8451811015610e05576000858281518110610c7557610c74612e1d565b5b602002602001015190506000858381518110610c9457610c93612e1d565b5b60200260200101519050600080600084815260200190815260200160002060008b73ffffffffffffffffffffffffffffffffffffffff1673ffffffffffffffffffffffffffffffffffffffff16815260200190815260200160002054905081811015610d35576040517f08c379a0000000000000000000000000000000000000000000000000000000008152600401610d2c90613157565b60405180910390fd5b81810360008085815260200190815260200160002060008c73ffffffffffffffffffffffffffffffffffffffff1673ffffffffffffffffffffffffffffffffffffffff168152602001908152602001600020819055508160008085815260200190815260200160002060008b73ffffffffffffffffffffffffffffffffffffffff1673ffffffffffffffffffffffffffffffffffffffff1681526020019081526020016000206000828254610dea9190613177565b9250508190555050505080610dfe90612e7b565b9050610c57565b508473ffffffffffffffffffffffffffffffffffffffff168673ffffffffffffffffffffffffffffffffffffffff168273ffffffffffffffffffffffffffffffffffffffff167f4a39dc06d4c0dbc64b70af90fd698a233a518aa5d07e595d983b8c0526c8f7fb8787604051610e7c9291906131cd565b60405180910390a4610e9281878787878761178c565b610ea0818787878787611794565b505050505050565b610eb981610eb4610b7f565b61196b565b50565b610ec682826107ba565b610f995760016005600084815260200190815260200160002060000160008373ffffffffffffffffffffffffffffffffffffffff1673ffffffffffffffffffffffffffffffffffffffff16815260200190815260200160002060006101000a81548160ff021916908315150217905550610f3e610b7f565b73ffffffffffffffffffffffffffffffffffffffff168173ffffffffffffffffffffffffffffffffffffffff16837f2f8788117e7eff1d82e926ec794901d17c78024a50270940304540a733656f0d60405160405180910390a45b5050565b610fa782826107ba565b1561107b5760006005600084815260200190815260200160002060000160008373ffffffffffffffffffffffffffffffffffffffff1673ffffffffffffffffffffffffffffffffffffffff16815260200190815260200160002060006101000a81548160ff021916908315150217905550611020610b7f565b73ffffffffffffffffffffffffffffffffffffffff168173ffffffffffffffffffffffffffffffffffffffff16837ff6391f5c32d9c69d2a47ea670b442974b53935d1edc7fd64eb21e047a839171b60405160405180910390a45b5050565b8173ffffffffffffffffffffffffffffffffffffffff168373ffffffffffffffffffffffffffffffffffffffff16036110ed576040517f08c379a00000000000000000000000000000000000000000000000000000000081526004016110e490613276565b60405180910390fd5b80600160008573ffffffffffffffffffffffffffffffffffffffff1673ffffffffffffffffffffffffffffffffffffffff16815260200190815260200160002060008473ffffffffffffffffffffffffffffffffffffffff1673ffffffffffffffffffffffffffffffffffffffff16815260200190815260200160002060006101000a81548160ff0219169083151502179055508173ffffffffffffffffffffffffffffffffffffffff168373ffffffffffffffffffffffffffffffffffffffff167f17307eab39ab6107e8899845ad3d59bd9653f200f220920489ca2b5937696c31836040516111de9190612177565b60405180910390a3505050565b600073ffffffffffffffffffffffffffffffffffffffff168473ffffffffffffffffffffffffffffffffffffffff160361125a576040517f08c379a000000000000000000000000000000000000000000000000000000000815260040161125190613308565b60405180910390fd5b6000611264610b7f565b9050600061127185611a08565b9050600061127e85611a08565b905061128f83600089858589611784565b8460008088815260200190815260200160002060008973ffffffffffffffffffffffffffffffffffffffff1673ffffffffffffffffffffffffffffffffffffffff16815260200190815260200160002060008282546112ee9190613177565b925050819055508673ffffffffffffffffffffffffffffffffffffffff16600073ffffffffffffffffffffffffffffffffffffffff168473ffffffffffffffffffffffffffffffffffffffff167fc3d58168c5ae7397731d063d5bbf3d657854427343f4c083240f7aacaa2d0f62898960405161136c929190613328565b60405180910390a46113838360008985858961178c565b61139283600089898989611a82565b50505050505050565b806004600084815260200190815260200160002090805190602001906113c2929190611f22565b50817f6bb7ff708619ba0610cba295a58592e0451dee2622938c8755667688daf3529b6113ee84610457565b6040516113fb9190612258565b60405180910390a25050565b600073ffffffffffffffffffffffffffffffffffffffff168473ffffffffffffffffffffffffffffffffffffffff1603611476576040517f08c379a000000000000000000000000000000000000000000000000000000000815260040161146d906130c5565b60405180910390fd5b6000611480610b7f565b9050600061148d85611a08565b9050600061149a85611a08565b90506114aa838989858589611784565b600080600088815260200190815260200160002060008a73ffffffffffffffffffffffffffffffffffffffff1673ffffffffffffffffffffffffffffffffffffffff16815260200190815260200160002054905085811015611541576040517f08c379a000000000000000000000000000000000000000000000000000000000815260040161153890613157565b60405180910390fd5b85810360008089815260200190815260200160002060008b73ffffffffffffffffffffffffffffffffffffffff1673ffffffffffffffffffffffffffffffffffffffff168152602001908152602001600020819055508560008089815260200190815260200160002060008a73ffffffffffffffffffffffffffffffffffffffff1673ffffffffffffffffffffffffffffffffffffffff16815260200190815260200160002060008282546115f69190613177565b925050819055508773ffffffffffffffffffffffffffffffffffffffff168973ffffffffffffffffffffffffffffffffffffffff168573ffffffffffffffffffffffffffffffffffffffff167fc3d58168c5ae7397731d063d5bbf3d657854427343f4c083240f7aacaa2d0f628a8a604051611673929190613328565b60405180910390a4611689848a8a86868a61178c565b611697848a8a8a8a8a611a82565b505050505050505050565b60007fd9b67a26000000000000000000000000000000000000000000000000000000007bffffffffffffffffffffffffffffffffffffffffffffffffffffffff1916827bffffffffffffffffffffffffffffffffffffffffffffffffffffffff1916148061176d57507f0e89341c000000000000000000000000000000000000000000000000000000007bffffffffffffffffffffffffffffffffffffffffffffffffffffffff1916827bffffffffffffffffffffffffffffffffffffffffffffffffffffffff1916145b8061177d575061177c82611c59565b5b9050919050565b505050505050565b505050505050565b6117b38473ffffffffffffffffffffffffffffffffffffffff16611cc3565b15611963578373ffffffffffffffffffffffffffffffffffffffff1663bc197c8187878686866040518663ffffffff1660e01b81526004016117f99594939291906133b5565b6020604051808303816000875af192505050801561183557506040513d601f19601f820116820180604052508101906118329190613432565b60015b6118da5761184161346c565b806308c379a00361189d575061185561348e565b80611860575061189f565b806040517f08c379a00000000000000000000000000000000000000000000000000000000081526004016118949190612258565b60405180910390fd5b505b6040517f08c379a00000000000000000000000000000000000000000000000000000000081526004016118d190613590565b60405180910390fd5b63bc197c8160e01b7bffffffffffffffffffffffffffffffffffffffffffffffffffffffff1916817bffffffffffffffffffffffffffffffffffffffffffffffffffffffff191614611961576040517f08c379a000000000000000000000000000000000000000000000000000000000815260040161195890613622565b60405180910390fd5b505b505050505050565b61197582826107ba565b611a045761199a8173ffffffffffffffffffffffffffffffffffffffff166014611ce6565b6119a88360001c6020611ce6565b6040516020016119b99291906136da565b6040516020818303038152906040526040517f08c379a00000000000000000000000000000000000000000000000000000000081526004016119fb9190612258565b60405180910390fd5b5050565b60606000600167ffffffffffffffff811115611a2757611a2661230c565b5b604051908082528060200260200182016040528015611a555781602001602082028036833780820191505090505b5090508281600081518110611a6d57611a6c612e1d565b5b60200260200101818152505080915050919050565b611aa18473ffffffffffffffffffffffffffffffffffffffff16611cc3565b15611c51578373ffffffffffffffffffffffffffffffffffffffff1663f23a6e6187878686866040518663ffffffff1660e01b8152600401611ae7959493929190613714565b6020604051808303816000875af1925050508015611b2357506040513d601f19601f82011682018060405250810190611b209190613432565b60015b611bc857611b2f61346c565b806308c379a003611b8b5750611b4361348e565b80611b4e5750611b8d565b806040517f08c379a0000000000000000000000000000000000000000000000000000000008152600401611b829190612258565b60405180910390fd5b505b6040517f08c379a0000000000000000000000000000000000000000000000000000000008152600401611bbf90613590565b60405180910390fd5b63f23a6e6160e01b7bffffffffffffffffffffffffffffffffffffffffffffffffffffffff1916817bffffffffffffffffffffffffffffffffffffffffffffffffffffffff191614611c4f576040517f08c379a0000000000000000000000000000000000000000000000000000000008152600401611c4690613622565b60405180910390fd5b505b505050505050565b60007f01ffc9a7000000000000000000000000000000000000000000000000000000007bffffffffffffffffffffffffffffffffffffffffffffffffffffffff1916827bffffffffffffffffffffffffffffffffffffffffffffffffffffffff1916149050919050565b6000808273ffffffffffffffffffffffffffffffffffffffff163b119050919050565b606060006002836002611cf9919061376e565b611d039190613177565b67ffffffffffffffff811115611d1c57611d1b61230c565b5b6040519080825280601f01601f191660200182016040528015611d4e5781602001600182028036833780820191505090505b5090507f300000000000000000000000000000000000000000000000000000000000000081600081518110611d8657611d85612e1d565b5b60200101907effffffffffffffffffffffffffffffffffffffffffffffffffffffffffffff1916908160001a9053507f780000000000000000000000000000000000000000000000000000000000000081600181518110611dea57611de9612e1d565b5b60200101907effffffffffffffffffffffffffffffffffffffffffffffffffffffffffffff1916908160001a90535060006001846002611e2a919061376e565b611e349190613177565b90505b6001811115611ed4577f3031323334353637383961626364656600000000000000000000000000000000600f861660108110611e7657611e75612e1d565b5b1a60f81b828281518110611e8d57611e8c612e1d565b5b60200101907effffffffffffffffffffffffffffffffffffffffffffffffffffffffffffff1916908160001a905350600485901c945080611ecd906137c8565b9050611e37565b5060008414611f18576040517f08c379a0000000000000000000000000000000000000000000000000000000008152600401611f0f9061383d565b60405180910390fd5b8091505092915050565b828054611f2e90612b42565b90600052602060002090601f016020900481019282611f505760008555611f97565b82601f10611f6957805160ff1916838001178555611f97565b82800160010185558215611f97579182015b82811115611f96578251825591602001919060010190611f7b565b5b509050611fa49190611fa8565b5090565b5b80821115611fc1576000816000905550600101611fa9565b5090565b6000604051905090565b600080fd5b600080fd5b600073ffffffffffffffffffffffffffffffffffffffff82169050919050565b600061200482611fd9565b9050919050565b61201481611ff9565b811461201f57600080fd5b50565b6000813590506120318161200b565b92915050565b6000819050919050565b61204a81612037565b811461205557600080fd5b50565b60008135905061206781612041565b92915050565b6000806040838503121561208457612083611fcf565b5b600061209285828601612022565b92505060206120a385828601612058565b9150509250929050565b6120b681612037565b82525050565b60006020820190506120d160008301846120ad565b92915050565b60007fffffffff0000000000000000000000000000000000000000000000000000000082169050919050565b61210c816120d7565b811461211757600080fd5b50565b60008135905061212981612103565b92915050565b60006020828403121561214557612144611fcf565b5b60006121538482850161211a565b91505092915050565b60008115159050919050565b6121718161215c565b82525050565b600060208201905061218c6000830184612168565b92915050565b6000602082840312156121a8576121a7611fcf565b5b60006121b684828501612058565b91505092915050565b600081519050919050565b600082825260208201905092915050565b60005b838110156121f95780820151818401526020810190506121de565b83811115612208576000848401525b50505050565b6000601f19601f8301169050919050565b600061222a826121bf565b61223481856121ca565b93506122448185602086016121db565b61224d8161220e565b840191505092915050565b60006020820190508181036000830152612272818461221f565b905092915050565b6000819050919050565b61228d8161227a565b811461229857600080fd5b50565b6000813590506122aa81612284565b92915050565b6000602082840312156122c6576122c5611fcf565b5b60006122d48482850161229b565b91505092915050565b6122e68161227a565b82525050565b600060208201905061230160008301846122dd565b92915050565b600080fd5b7f4e487b7100000000000000000000000000000000000000000000000000000000600052604160045260246000fd5b6123448261220e565b810181811067ffffffffffffffff821117156123635761236261230c565b5b80604052505050565b6000612376611fc5565b9050612382828261233b565b919050565b600067ffffffffffffffff8211156123a2576123a161230c565b5b602082029050602081019050919050565b600080fd5b60006123cb6123c684612387565b61236c565b905080838252602082019050602084028301858111156123ee576123ed6123b3565b5b835b8181101561241757806124038882612058565b8452602084019350506020810190506123f0565b5050509392505050565b600082601f83011261243657612435612307565b5b81356124468482602086016123b8565b91505092915050565b600080fd5b600067ffffffffffffffff82111561246f5761246e61230c565b5b6124788261220e565b9050602081019050919050565b82818337600083830152505050565b60006124a76124a284612454565b61236c565b9050828152602081018484840111156124c3576124c261244f565b5b6124ce848285612485565b509392505050565b600082601f8301126124eb576124ea612307565b5b81356124fb848260208601612494565b91505092915050565b600080600080600060a086880312156125205761251f611fcf565b5b600061252e88828901612022565b955050602061253f88828901612022565b945050604086013567ffffffffffffffff8111156125605761255f611fd4565b5b61256c88828901612421565b935050606086013567ffffffffffffffff81111561258d5761258c611fd4565b5b61259988828901612421565b925050608086013567ffffffffffffffff8111156125ba576125b9611fd4565b5b6125c6888289016124d6565b9150509295509295909350565b600080604083850312156125ea576125e9611fcf565b5b60006125f88582860161229b565b925050602061260985828601612022565b9150509250929050565b600067ffffffffffffffff82111561262e5761262d61230c565b5b602082029050602081019050919050565b600061265261264d84612613565b61236c565b90508083825260208201905060208402830185811115612675576126746123b3565b5b835b8181101561269e578061268a8882612022565b845260208401935050602081019050612677565b5050509392505050565b600082601f8301126126bd576126bc612307565b5b81356126cd84826020860161263f565b91505092915050565b600080604083850312156126ed576126ec611fcf565b5b600083013567ffffffffffffffff81111561270b5761270a611fd4565b5b612717858286016126a8565b925050602083013567ffffffffffffffff81111561273857612737611fd4565b5b61274485828601612421565b9150509250929050565b600081519050919050565b600082825260208201905092915050565b6000819050602082019050919050565b61278381612037565b82525050565b6000612795838361277a565b60208301905092915050565b6000602082019050919050565b60006127b98261274e565b6127c38185612759565b93506127ce8361276a565b8060005b838110156127ff5781516127e68882612789565b97506127f1836127a1565b9250506001810190506127d2565b5085935050505092915050565b6000602082019050818103600083015261282681846127ae565b905092915050565b6128378161215c565b811461284257600080fd5b50565b6000813590506128548161282e565b92915050565b6000806040838503121561287157612870611fcf565b5b600061287f85828601612022565b925050602061289085828601612845565b9150509250929050565b600067ffffffffffffffff8211156128b5576128b461230c565b5b6128be8261220e565b9050602081019050919050565b60006128de6128d98461289a565b61236c565b9050828152602081018484840111156128fa576128f961244f565b5b612905848285612485565b509392505050565b600082601f83011261292257612921612307565b5b81356129328482602086016128cb565b91505092915050565b60008060006060848603121561295457612953611fcf565b5b600061296286828701612022565b935050602061297386828701612058565b925050604084013567ffffffffffffffff81111561299457612993611fd4565b5b6129a08682870161290d565b9150509250925092565b600080604083850312156129c1576129c0611fcf565b5b60006129cf85828601612022565b92505060206129e085828601612022565b9150509250929050565b600080600080600060a08688031215612a0657612a05611fcf565b5b6000612a1488828901612022565b9550506020612a2588828901612022565b9450506040612a3688828901612058565b9350506060612a4788828901612058565b925050608086013567ffffffffffffffff811115612a6857612a67611fd4565b5b612a74888289016124d6565b9150509295509295909350565b7f455243313135353a2062616c616e636520717565727920666f7220746865207a60008201527f65726f2061646472657373000000000000000000000000000000000000000000602082015250565b6000612add602b836121ca565b9150612ae882612a81565b604082019050919050565b60006020820190508181036000830152612b0c81612ad0565b9050919050565b7f4e487b7100000000000000000000000000000000000000000000000000000000600052602260045260246000fd5b60006002820490506001821680612b5a57607f821691505b602082108103612b6d57612b6c612b13565b5b50919050565b600081905092915050565b60008190508160005260206000209050919050565b60008154612ba081612b42565b612baa8186612b73565b94506001821660008114612bc55760018114612bd657612c09565b60ff19831686528186019350612c09565b612bdf85612b7e565b60005b83811015612c0157815481890152600182019150602081019050612be2565b838801955050505b50505092915050565b6000612c1d826121bf565b612c278185612b73565b9350612c378185602086016121db565b80840191505092915050565b6000612c4f8285612b93565b9150612c5b8284612c12565b91508190509392505050565b7f455243313135353a207472616e736665722063616c6c6572206973206e6f742060008201527f6f776e6572206e6f7220617070726f7665640000000000000000000000000000602082015250565b6000612cc36032836121ca565b9150612cce82612c67565b604082019050919050565b60006020820190508181036000830152612cf281612cb6565b9050919050565b7f416363657373436f6e74726f6c3a2063616e206f6e6c792072656e6f756e636560008201527f20726f6c657320666f722073656c660000000000000000000000000000000000602082015250565b6000612d55602f836121ca565b9150612d6082612cf9565b604082019050919050565b60006020820190508181036000830152612d8481612d48565b9050919050565b7f455243313135353a206163636f756e747320616e6420696473206c656e67746860008201527f206d69736d617463680000000000000000000000000000000000000000000000602082015250565b6000612de76029836121ca565b9150612df282612d8b565b604082019050919050565b60006020820190508181036000830152612e1681612dda565b9050919050565b7f4e487b7100000000000000000000000000000000000000000000000000000000600052603260045260246000fd5b7f4e487b7100000000000000000000000000000000000000000000000000000000600052601160045260246000fd5b6000612e8682612037565b91507fffffffffffffffffffffffffffffffffffffffffffffffffffffffffffffffff8203612eb857612eb7612e4c565b5b600182019050919050565b7f43616c6c6572206973206e6f742061206d696e74657200000000000000000000600082015250565b6000612ef96016836121ca565b9150612f0482612ec3565b602082019050919050565b60006020820190508181036000830152612f2881612eec565b9050919050565b7f455243313135353a2063616c6c6572206973206e6f74206f776e6572206e6f7260008201527f20617070726f7665640000000000000000000000000000000000000000000000602082015250565b6000612f8b6029836121ca565b9150612f9682612f2f565b604082019050919050565b60006020820190508181036000830152612fba81612f7e565b9050919050565b7f455243313135353a2069647320616e6420616d6f756e7473206c656e6774682060008201527f6d69736d61746368000000000000000000000000000000000000000000000000602082015250565b600061301d6028836121ca565b915061302882612fc1565b604082019050919050565b6000602082019050818103600083015261304c81613010565b9050919050565b7f455243313135353a207472616e7366657220746f20746865207a65726f20616460008201527f6472657373000000000000000000000000000000000000000000000000000000602082015250565b60006130af6025836121ca565b91506130ba82613053565b604082019050919050565b600060208201905081810360008301526130de816130a2565b9050919050565b7f455243313135353a20696e73756666696369656e742062616c616e636520666f60008201527f72207472616e7366657200000000000000000000000000000000000000000000602082015250565b6000613141602a836121ca565b915061314c826130e5565b604082019050919050565b6000602082019050818103600083015261317081613134565b9050919050565b600061318282612037565b915061318d83612037565b9250827fffffffffffffffffffffffffffffffffffffffffffffffffffffffffffffffff038211156131c2576131c1612e4c565b5b828201905092915050565b600060408201905081810360008301526131e781856127ae565b905081810360208301526131fb81846127ae565b90509392505050565b7f455243313135353a2073657474696e6720617070726f76616c2073746174757360008201527f20666f722073656c660000000000000000000000000000000000000000000000602082015250565b60006132606029836121ca565b915061326b82613204565b604082019050919050565b6000602082019050818103600083015261328f81613253565b9050919050565b7f455243313135353a206d696e7420746f20746865207a65726f2061646472657360008201527f7300000000000000000000000000000000000000000000000000000000000000602082015250565b60006132f26021836121ca565b91506132fd82613296565b604082019050919050565b60006020820190508181036000830152613321816132e5565b9050919050565b600060408201905061333d60008301856120ad565b61334a60208301846120ad565b9392505050565b61335a81611ff9565b82525050565b600081519050919050565b600082825260208201905092915050565b600061338782613360565b613391818561336b565b93506133a18185602086016121db565b6133aa8161220e565b840191505092915050565b600060a0820190506133ca6000830188613351565b6133d76020830187613351565b81810360408301526133e981866127ae565b905081810360608301526133fd81856127ae565b90508181036080830152613411818461337c565b90509695505050505050565b60008151905061342c81612103565b92915050565b60006020828403121561344857613447611fcf565b5b60006134568482850161341d565b91505092915050565b60008160e01c9050919050565b600060033d111561348b5760046000803e61348860005161345f565b90505b90565b600060443d1061351b576134a0611fc5565b60043d036004823e80513d602482011167ffffffffffffffff821117156134c857505061351b565b808201805167ffffffffffffffff8111156134e6575050505061351b565b80602083010160043d03850181111561350357505050505061351b565b6135128260200185018661233b565b82955050505050505b90565b7f455243313135353a207472616e7366657220746f206e6f6e204552433131353560008201527f526563656976657220696d706c656d656e746572000000000000000000000000602082015250565b600061357a6034836121ca565b91506135858261351e565b604082019050919050565b600060208201905081810360008301526135a98161356d565b9050919050565b7f455243313135353a204552433131353552656365697665722072656a6563746560008201527f6420746f6b656e73000000000000000000000000000000000000000000000000602082015250565b600061360c6028836121ca565b9150613617826135b0565b604082019050919050565b6000602082019050818103600083015261363b816135ff565b9050919050565b7f416363657373436f6e74726f6c3a206163636f756e7420000000000000000000600082015250565b6000613678601783612b73565b915061368382613642565b601782019050919050565b7f206973206d697373696e6720726f6c6520000000000000000000000000000000600082015250565b60006136c4601183612b73565b91506136cf8261368e565b601182019050919050565b60006136e58261366b565b91506136f18285612c12565b91506136fc826136b7565b91506137088284612c12565b91508190509392505050565b600060a0820190506137296000830188613351565b6137366020830187613351565b61374360408301866120ad565b61375060608301856120ad565b8181036080830152613762818461337c565b90509695505050505050565b600061377982612037565b915061378483612037565b9250817fffffffffffffffffffffffffffffffffffffffffffffffffffffffffffffffff04831182151516156137bd576137bc612e4c565b5b828202905092915050565b60006137d382612037565b9150600082036137e6576137e5612e4c565b5b600182039050919050565b7f537472696e67733a20686578206c656e67746820696e73756666696369656e74600082015250565b60006138276020836121ca565b9150613832826137f1565b602082019050919050565b600060208201905081810360008301526138568161381a565b905091905056fe68747470733a2f2f62616467652d6f662d617373656d626c792e6e65746c6966792e6170702f6170692f626f61a2646970667358221220389a5031a369d76f759eae99e9f5cf0490f4bb2ff7dc8331bc94af3062aeff2d64736f6c634300080e003368747470733a2f2f62616467652d6f662d617373656d626c792e6e65746c6966792e6170702f6170692f626f612f7b69647d2e6a736f6e",
  "devdoc": {
    "kind": "dev",
    "methods": {
      "balanceOf(address,uint256)": {
        "details": "See {IERC1155-balanceOf}. Requirements: - `account` cannot be the zero address."
      },
      "balanceOfBatch(address[],uint256[])": {
        "details": "See {IERC1155-balanceOfBatch}. Requirements: - `accounts` and `ids` must have the same length."
      },
      "getRoleAdmin(bytes32)": {
        "details": "Returns the admin role that controls `role`. See {grantRole} and {revokeRole}. To change a role's admin, use {_setRoleAdmin}."
      },
      "grantRole(bytes32,address)": {
        "details": "Grants `role` to `account`. If `account` had not been already granted `role`, emits a {RoleGranted} event. Requirements: - the caller must have ``role``'s admin role."
      },
      "hasRole(bytes32,address)": {
        "details": "Returns `true` if `account` has been granted `role`."
      },
      "isApprovedForAll(address,address)": {
        "details": "See {IERC1155-isApprovedForAll}."
      },
      "renounceRole(bytes32,address)": {
        "details": "Revokes `role` from the calling account. Roles are often managed via {grantRole} and {revokeRole}: this function's purpose is to provide a mechanism for accounts to lose their privileges if they are compromised (such as when a trusted device is misplaced). If the calling account had been revoked `role`, emits a {RoleRevoked} event. Requirements: - the caller must be `account`."
      },
      "revokeRole(bytes32,address)": {
        "details": "Revokes `role` from `account`. If `account` had been granted `role`, emits a {RoleRevoked} event. Requirements: - the caller must have ``role``'s admin role."
      },
      "safeBatchTransferFrom(address,address,uint256[],uint256[],bytes)": {
        "details": "See {IERC1155-safeBatchTransferFrom}."
      },
      "safeTransferFrom(address,address,uint256,uint256,bytes)": {
        "details": "See {IERC1155-safeTransferFrom}."
      },
      "setApprovalForAll(address,bool)": {
        "details": "See {IERC1155-setApprovalForAll}."
      },
      "supportsInterface(bytes4)": {
        "details": "See {IERC165-supportsInterface}."
      },
      "uri(uint256)": {
        "details": "See {IERC1155MetadataURI-uri}. This implementation returns the concatenation of the `_baseURI` and the token-specific uri if the latter is set This enables the following behaviors: - if `_tokenURIs[tokenId]` is set, then the result is the concatenation   of `_baseURI` and `_tokenURIs[tokenId]` (keep in mind that `_baseURI`   is empty per default); - if `_tokenURIs[tokenId]` is NOT set then we fallback to `super.uri()`   which in most cases will contain `ERC1155._uri`; - if `_tokenURIs[tokenId]` is NOT set, and if the parents do not have a   uri value set, then the result is empty."
      }
    },
    "version": 1
  },
  "userdoc": {
    "kind": "user",
    "methods": {},
    "version": 1
  },
  "storageLayout": {
    "storage": [
      {
        "astId": 418,
        "contract": "contracts/BadgeOfAssembly.sol:BadgeOfAssembly",
        "label": "_balances",
        "offset": 0,
        "slot": "0",
        "type": "t_mapping(t_uint256,t_mapping(t_address,t_uint256))"
      },
      {
        "astId": 424,
        "contract": "contracts/BadgeOfAssembly.sol:BadgeOfAssembly",
        "label": "_operatorApprovals",
        "offset": 0,
        "slot": "1",
        "type": "t_mapping(t_address,t_mapping(t_address,t_bool))"
      },
      {
        "astId": 426,
        "contract": "contracts/BadgeOfAssembly.sol:BadgeOfAssembly",
        "label": "_uri",
        "offset": 0,
        "slot": "2",
        "type": "t_string_storage"
      },
      {
        "astId": 1791,
        "contract": "contracts/BadgeOfAssembly.sol:BadgeOfAssembly",
        "label": "_baseURI",
        "offset": 0,
        "slot": "3",
        "type": "t_string_storage"
      },
      {
        "astId": 1795,
        "contract": "contracts/BadgeOfAssembly.sol:BadgeOfAssembly",
        "label": "_tokenURIs",
        "offset": 0,
        "slot": "4",
        "type": "t_mapping(t_uint256,t_string_storage)"
      },
      {
        "astId": 24,
        "contract": "contracts/BadgeOfAssembly.sol:BadgeOfAssembly",
        "label": "_roles",
        "offset": 0,
        "slot": "5",
        "type": "t_mapping(t_bytes32,t_struct(RoleData)19_storage)"
      }
    ],
    "types": {
      "t_address": {
        "encoding": "inplace",
        "label": "address",
        "numberOfBytes": "20"
      },
      "t_bool": {
        "encoding": "inplace",
        "label": "bool",
        "numberOfBytes": "1"
      },
      "t_bytes32": {
        "encoding": "inplace",
        "label": "bytes32",
        "numberOfBytes": "32"
      },
      "t_mapping(t_address,t_bool)": {
        "encoding": "mapping",
        "key": "t_address",
        "label": "mapping(address => bool)",
        "numberOfBytes": "32",
        "value": "t_bool"
      },
      "t_mapping(t_address,t_mapping(t_address,t_bool))": {
        "encoding": "mapping",
        "key": "t_address",
        "label": "mapping(address => mapping(address => bool))",
        "numberOfBytes": "32",
        "value": "t_mapping(t_address,t_bool)"
      },
      "t_mapping(t_address,t_uint256)": {
        "encoding": "mapping",
        "key": "t_address",
        "label": "mapping(address => uint256)",
        "numberOfBytes": "32",
        "value": "t_uint256"
      },
      "t_mapping(t_bytes32,t_struct(RoleData)19_storage)": {
        "encoding": "mapping",
        "key": "t_bytes32",
        "label": "mapping(bytes32 => struct AccessControl.RoleData)",
        "numberOfBytes": "32",
        "value": "t_struct(RoleData)19_storage"
      },
      "t_mapping(t_uint256,t_mapping(t_address,t_uint256))": {
        "encoding": "mapping",
        "key": "t_uint256",
        "label": "mapping(uint256 => mapping(address => uint256))",
        "numberOfBytes": "32",
        "value": "t_mapping(t_address,t_uint256)"
      },
      "t_mapping(t_uint256,t_string_storage)": {
        "encoding": "mapping",
        "key": "t_uint256",
        "label": "mapping(uint256 => string)",
        "numberOfBytes": "32",
        "value": "t_string_storage"
      },
      "t_string_storage": {
        "encoding": "bytes",
        "label": "string",
        "numberOfBytes": "32"
      },
      "t_struct(RoleData)19_storage": {
        "encoding": "inplace",
        "label": "struct AccessControl.RoleData",
        "members": [
          {
            "astId": 16,
            "contract": "contracts/BadgeOfAssembly.sol:BadgeOfAssembly",
            "label": "members",
            "offset": 0,
            "slot": "0",
            "type": "t_mapping(t_address,t_bool)"
          },
          {
            "astId": 18,
            "contract": "contracts/BadgeOfAssembly.sol:BadgeOfAssembly",
            "label": "adminRole",
            "offset": 0,
            "slot": "1",
            "type": "t_bytes32"
          }
        ],
        "numberOfBytes": "64"
      },
      "t_uint256": {
        "encoding": "inplace",
        "label": "uint256",
        "numberOfBytes": "32"
      }
    }
  }
}