{
  "address": "0xB788d5C6eA489DB4671d78B19717e983F2248219",
  "abi": [
    {
      "inputs": [
        {
          "internalType": "address",
          "name": "metadataPrinter",
          "type": "address"
        }
      ],
      "stateMutability": "nonpayable",
      "type": "constructor"
    },
    {
      "inputs": [],
      "name": "Unauthorized",
      "type": "error"
    },
    {
      "anonymous": false,
      "inputs": [
        {
          "indexed": true,
          "internalType": "address",
          "name": "account",
          "type": "address"
        },
        {
          "indexed": true,
          "internalType": "address",
          "name": "operator",
          "type": "address"
        },
        {
          "indexed": false,
          "internalType": "bool",
          "name": "approved",
          "type": "bool"
        }
      ],
      "name": "ApprovalForAll",
      "type": "event"
    },
    {
      "anonymous": false,
      "inputs": [
        {
          "indexed": true,
          "internalType": "address",
          "name": "previousOwner",
          "type": "address"
        },
        {
          "indexed": true,
          "internalType": "address",
          "name": "newOwner",
          "type": "address"
        }
      ],
      "name": "OwnershipTransferred",
      "type": "event"
    },
    {
      "anonymous": false,
      "inputs": [
        {
          "indexed": true,
          "internalType": "bytes32",
          "name": "role",
          "type": "bytes32"
        },
        {
          "indexed": true,
          "internalType": "bytes32",
          "name": "previousAdminRole",
          "type": "bytes32"
        },
        {
          "indexed": true,
          "internalType": "bytes32",
          "name": "newAdminRole",
          "type": "bytes32"
        }
      ],
      "name": "RoleAdminChanged",
      "type": "event"
    },
    {
      "anonymous": false,
      "inputs": [
        {
          "indexed": true,
          "internalType": "bytes32",
          "name": "role",
          "type": "bytes32"
        },
        {
          "indexed": true,
          "internalType": "address",
          "name": "account",
          "type": "address"
        },
        {
          "indexed": true,
          "internalType": "address",
          "name": "sender",
          "type": "address"
        }
      ],
      "name": "RoleGranted",
      "type": "event"
    },
    {
      "anonymous": false,
      "inputs": [
        {
          "indexed": true,
          "internalType": "bytes32",
          "name": "role",
          "type": "bytes32"
        },
        {
          "indexed": true,
          "internalType": "address",
          "name": "account",
          "type": "address"
        },
        {
          "indexed": true,
          "internalType": "address",
          "name": "sender",
          "type": "address"
        }
      ],
      "name": "RoleRevoked",
      "type": "event"
    },
    {
      "anonymous": false,
      "inputs": [
        {
          "indexed": true,
          "internalType": "address",
          "name": "operator",
          "type": "address"
        },
        {
          "indexed": true,
          "internalType": "address",
          "name": "from",
          "type": "address"
        },
        {
          "indexed": true,
          "internalType": "address",
          "name": "to",
          "type": "address"
        },
        {
          "indexed": false,
          "internalType": "uint256[]",
          "name": "ids",
          "type": "uint256[]"
        },
        {
          "indexed": false,
          "internalType": "uint256[]",
          "name": "values",
          "type": "uint256[]"
        }
      ],
      "name": "TransferBatch",
      "type": "event"
    },
    {
      "anonymous": false,
      "inputs": [
        {
          "indexed": true,
          "internalType": "address",
          "name": "operator",
          "type": "address"
        },
        {
          "indexed": true,
          "internalType": "address",
          "name": "from",
          "type": "address"
        },
        {
          "indexed": true,
          "internalType": "address",
          "name": "to",
          "type": "address"
        },
        {
          "indexed": false,
          "internalType": "uint256",
          "name": "id",
          "type": "uint256"
        },
        {
          "indexed": false,
          "internalType": "uint256",
          "name": "value",
          "type": "uint256"
        }
      ],
      "name": "TransferSingle",
      "type": "event"
    },
    {
      "anonymous": false,
      "inputs": [
        {
          "indexed": false,
          "internalType": "string",
          "name": "value",
          "type": "string"
        },
        {
          "indexed": true,
          "internalType": "uint256",
          "name": "id",
          "type": "uint256"
        }
      ],
      "name": "URI",
      "type": "event"
    },
    {
      "inputs": [],
      "name": "ADMIN_ROLE",
      "outputs": [
        {
          "internalType": "bytes32",
          "name": "",
          "type": "bytes32"
        }
      ],
      "stateMutability": "view",
      "type": "function"
    },
    {
      "inputs": [],
      "name": "DEFAULT_ADMIN_ROLE",
      "outputs": [
        {
          "internalType": "bytes32",
          "name": "",
          "type": "bytes32"
        }
      ],
      "stateMutability": "view",
      "type": "function"
    },
    {
      "inputs": [],
      "name": "MINTER_ROLE",
      "outputs": [
        {
          "internalType": "bytes32",
          "name": "",
          "type": "bytes32"
        }
      ],
      "stateMutability": "view",
      "type": "function"
    },
    {
      "inputs": [],
      "name": "_contractURI",
      "outputs": [
        {
          "internalType": "string",
          "name": "",
          "type": "string"
        }
      ],
      "stateMutability": "view",
      "type": "function"
    },
    {
      "inputs": [
        {
          "internalType": "address",
          "name": "account",
          "type": "address"
        },
        {
          "internalType": "uint256",
          "name": "id",
          "type": "uint256"
        }
      ],
      "name": "balanceOf",
      "outputs": [
        {
          "internalType": "uint256",
          "name": "",
          "type": "uint256"
        }
      ],
      "stateMutability": "view",
      "type": "function"
    },
    {
      "inputs": [
        {
          "internalType": "address[]",
          "name": "accounts",
          "type": "address[]"
        },
        {
          "internalType": "uint256[]",
          "name": "ids",
          "type": "uint256[]"
        }
      ],
      "name": "balanceOfBatch",
      "outputs": [
        {
          "internalType": "uint256[]",
          "name": "",
          "type": "uint256[]"
        }
      ],
      "stateMutability": "view",
      "type": "function"
    },
    {
      "inputs": [],
      "name": "contractURI",
      "outputs": [
        {
          "internalType": "string",
          "name": "",
          "type": "string"
        }
      ],
      "stateMutability": "view",
      "type": "function"
    },
    {
      "inputs": [
        {
          "internalType": "bytes32",
          "name": "role",
          "type": "bytes32"
        }
      ],
      "name": "getRoleAdmin",
      "outputs": [
        {
          "internalType": "bytes32",
          "name": "",
          "type": "bytes32"
        }
      ],
      "stateMutability": "view",
      "type": "function"
    },
    {
      "inputs": [
        {
          "internalType": "bytes32",
          "name": "role",
          "type": "bytes32"
        },
        {
          "internalType": "address",
          "name": "account",
          "type": "address"
        }
      ],
      "name": "grantRole",
      "outputs": [],
      "stateMutability": "nonpayable",
      "type": "function"
    },
    {
      "inputs": [
        {
          "internalType": "bytes32",
          "name": "role",
          "type": "bytes32"
        },
        {
          "internalType": "address",
          "name": "account",
          "type": "address"
        }
      ],
      "name": "hasRole",
      "outputs": [
        {
          "internalType": "bool",
          "name": "",
          "type": "bool"
        }
      ],
      "stateMutability": "view",
      "type": "function"
    },
    {
      "inputs": [
        {
          "internalType": "address",
          "name": "account",
          "type": "address"
        },
        {
          "internalType": "address",
          "name": "operator",
          "type": "address"
        }
      ],
      "name": "isApprovedForAll",
      "outputs": [
        {
          "internalType": "bool",
          "name": "",
          "type": "bool"
        }
      ],
      "stateMutability": "view",
      "type": "function"
    },
    {
      "inputs": [
        {
          "internalType": "uint256",
          "name": "",
          "type": "uint256"
        }
      ],
      "name": "metadata",
      "outputs": [
        {
          "internalType": "string",
          "name": "name",
          "type": "string"
        },
        {
          "internalType": "string",
          "name": "description",
          "type": "string"
        },
        {
          "internalType": "string",
          "name": "image",
          "type": "string"
        },
        {
          "internalType": "string",
          "name": "animationUrl",
          "type": "string"
        },
        {
          "internalType": "string",
          "name": "youtubeUrl",
          "type": "string"
        },
        {
          "internalType": "address",
          "name": "minter",
          "type": "address"
        }
      ],
      "stateMutability": "view",
      "type": "function"
    },
    {
      "inputs": [
        {
          "internalType": "address",
          "name": "to",
          "type": "address"
        },
        {
          "internalType": "uint256",
          "name": "tokenID",
          "type": "uint256"
        },
        {
          "internalType": "uint256",
          "name": "amount",
          "type": "uint256"
        }
      ],
      "name": "mint",
      "outputs": [],
      "stateMutability": "nonpayable",
      "type": "function"
    },
    {
      "inputs": [],
      "name": "owner",
      "outputs": [
        {
          "internalType": "address",
          "name": "",
          "type": "address"
        }
      ],
      "stateMutability": "view",
      "type": "function"
    },
    {
      "inputs": [],
      "name": "renounceOwnership",
      "outputs": [],
      "stateMutability": "nonpayable",
      "type": "function"
    },
    {
      "inputs": [
        {
          "internalType": "bytes32",
          "name": "role",
          "type": "bytes32"
        },
        {
          "internalType": "address",
          "name": "account",
          "type": "address"
        }
      ],
      "name": "renounceRole",
      "outputs": [],
      "stateMutability": "nonpayable",
      "type": "function"
    },
    {
      "inputs": [
        {
          "internalType": "bytes32",
          "name": "role",
          "type": "bytes32"
        },
        {
          "internalType": "address",
          "name": "account",
          "type": "address"
        }
      ],
      "name": "revokeRole",
      "outputs": [],
      "stateMutability": "nonpayable",
      "type": "function"
    },
    {
      "inputs": [
        {
          "internalType": "address",
          "name": "from",
          "type": "address"
        },
        {
          "internalType": "address",
          "name": "to",
          "type": "address"
        },
        {
          "internalType": "uint256[]",
          "name": "ids",
          "type": "uint256[]"
        },
        {
          "internalType": "uint256[]",
          "name": "amounts",
          "type": "uint256[]"
        },
        {
          "internalType": "bytes",
          "name": "data",
          "type": "bytes"
        }
      ],
      "name": "safeBatchTransferFrom",
      "outputs": [],
      "stateMutability": "nonpayable",
      "type": "function"
    },
    {
      "inputs": [
        {
          "internalType": "address",
          "name": "from",
          "type": "address"
        },
        {
          "internalType": "address",
          "name": "to",
          "type": "address"
        },
        {
          "internalType": "uint256",
          "name": "id",
          "type": "uint256"
        },
        {
          "internalType": "uint256",
          "name": "amount",
          "type": "uint256"
        },
        {
          "internalType": "bytes",
          "name": "data",
          "type": "bytes"
        }
      ],
      "name": "safeTransferFrom",
      "outputs": [],
      "stateMutability": "nonpayable",
      "type": "function"
    },
    {
      "inputs": [
        {
          "internalType": "address",
          "name": "operator",
          "type": "address"
        },
        {
          "internalType": "bool",
          "name": "approved",
          "type": "bool"
        }
      ],
      "name": "setApprovalForAll",
      "outputs": [],
      "stateMutability": "nonpayable",
      "type": "function"
    },
    {
      "inputs": [
        {
          "internalType": "string",
          "name": "newContractURI",
          "type": "string"
        }
      ],
      "name": "setContractURI",
      "outputs": [
        {
          "internalType": "bool",
          "name": "",
          "type": "bool"
        }
      ],
      "stateMutability": "nonpayable",
      "type": "function"
    },
    {
      "inputs": [
        {
          "internalType": "address",
          "name": "newContract",
          "type": "address"
        }
      ],
      "name": "setMetadataPrinter",
      "outputs": [
        {
          "internalType": "bool",
          "name": "",
          "type": "bool"
        }
      ],
      "stateMutability": "nonpayable",
      "type": "function"
    },
    {
      "inputs": [
        {
          "components": [
            {
              "internalType": "string",
              "name": "name",
              "type": "string"
            },
            {
              "internalType": "string",
              "name": "description",
              "type": "string"
            },
            {
              "internalType": "string",
              "name": "image",
              "type": "string"
            },
            {
              "internalType": "string",
              "name": "animationUrl",
              "type": "string"
            },
            {
              "internalType": "string",
              "name": "youtubeUrl",
              "type": "string"
            },
            {
              "internalType": "address",
              "name": "minter",
              "type": "address"
            }
          ],
          "internalType": "struct BadgeOfAssembly.BadgeMetadata",
          "name": "_metadata",
          "type": "tuple"
        },
        {
          "internalType": "uint256",
          "name": "initialSupply",
          "type": "uint256"
        }
      ],
      "name": "setup",
      "outputs": [
        {
          "internalType": "uint256",
          "name": "",
          "type": "uint256"
        }
      ],
      "stateMutability": "nonpayable",
      "type": "function"
    },
    {
      "inputs": [
        {
          "internalType": "bytes4",
          "name": "interfaceId",
          "type": "bytes4"
        }
      ],
      "name": "supportsInterface",
      "outputs": [
        {
          "internalType": "bool",
          "name": "",
          "type": "bool"
        }
      ],
      "stateMutability": "view",
      "type": "function"
    },
    {
      "inputs": [
        {
          "internalType": "address",
          "name": "newOwner",
          "type": "address"
        }
      ],
      "name": "transferOwnership",
      "outputs": [],
      "stateMutability": "nonpayable",
      "type": "function"
    },
    {
      "inputs": [
        {
          "internalType": "uint256",
          "name": "tokenID",
          "type": "uint256"
        }
      ],
      "name": "uri",
      "outputs": [
        {
          "internalType": "string",
          "name": "",
          "type": "string"
        }
      ],
      "stateMutability": "view",
      "type": "function"
    }
  ],
  "transactionHash": "0x3d5b1edeeb9ecc4e26d8c1fc226f8e895a6857a5ccf7ed677a2f49447dd0d5e2",
  "args": [
    "0x71586dC6E0c2e6C9f2B0F1e99f84105d248f5AeC"
  ],
  "numDeployments": 3,
  "solcInputHash": "e0d6a021cbdfa47568a564b8b54eeeb5",
  "bytecode": "0x60e0604052602d60808181529062002c0360a0398051620000299160059160209091019062000221565b503480156200003757600080fd5b5060405162002c3038038062002c308339810160408190526200005a91620002c7565b604080516020810190915260008152620000748162000109565b50620000803362000122565b620000ac7f9f2df0fed2c77648de5860a4cc508cd0818c85b8b8a1ab4ceeef8d981c8956a63362000174565b620000d87fa49807205ce4d355092ef5a8a18f56e8913cf4a201fbe287825b095693c217753362000174565b620000e33362000122565b600680546001600160a01b0319166001600160a01b039290921691909117905562000335565b80516200011e90600290602084019062000221565b5050565b600480546001600160a01b038381166001600160a01b0319831681179093556040519116919082907f8be0079c531659141344cd1fd0a4f28419497f9722a3daafe3b4186f6b6457e090600090a35050565b60008281526003602090815260408083206001600160a01b03851684529091529020546200011e908390839060ff166200011e5760008281526003602090815260408083206001600160a01b03851684529091529020805460ff19166001179055620001dd3390565b6001600160a01b0316816001600160a01b0316837f2f8788117e7eff1d82e926ec794901d17c78024a50270940304540a733656f0d60405160405180910390a45050565b8280546200022f90620002f9565b90600052602060002090601f0160209004810192826200025357600085556200029e565b82601f106200026e57805160ff19168380011785556200029e565b828001600101855582156200029e579182015b828111156200029e57825182559160200191906001019062000281565b50620002ac929150620002b0565b5090565b5b80821115620002ac5760008155600101620002b1565b600060208284031215620002da57600080fd5b81516001600160a01b0381168114620002f257600080fd5b9392505050565b600181811c908216806200030e57607f821691505b6020821081036200032f57634e487b7160e01b600052602260045260246000fd5b50919050565b6128be80620003456000396000f3fe608060405234801561001057600080fd5b506004361061018d5760003560e01c806391d14854116100de578063d547741f11610097578063e8a3d48511610071578063e8a3d485146103a4578063e985e9c5146103ac578063f242432a146103e8578063f2fde38b146103fb57600080fd5b8063d547741f14610359578063e3684e391461036c578063e4e298a41461039157600080fd5b806391d14854146102e9578063938e3d7b146102fc578063a217fddf1461030f578063a22cb46514610317578063c0e727401461032a578063d53913931461033257600080fd5b80632f2ff15d1161014b578063715018a611610125578063715018a61461028c57806375b238fc14610294578063896ae081146102bb5780638da5cb5b146102ce57600080fd5b80632f2ff15d1461024657806336568abe146102595780634e1273f41461026c57600080fd5b8062fdd58e1461019257806301ffc9a7146101b85780630e89341c146101db578063156e29f6146101fb578063248a9ca3146102105780632eb2c2d614610233575b600080fd5b6101a56101a0366004611b17565b61040e565b6040519081526020015b60405180910390f35b6101cb6101c6366004611b59565b6104a5565b60405190151581526020016101af565b6101ee6101e9366004611b76565b6104b6565b6040516101af9190611be7565b61020e610209366004611bfa565b610528565b005b6101a561021e366004611b76565b60009081526003602052604090206001015490565b61020e610241366004611d88565b610583565b61020e610254366004611e35565b61061a565b61020e610267366004611e35565b610644565b61027f61027a366004611e65565b6106c2565b6040516101af9190611f6c565b61020e6107eb565b6101a57fa49807205ce4d355092ef5a8a18f56e8913cf4a201fbe287825b095693c2177581565b6101a56102c9366004611f7f565b610851565b6004546040516001600160a01b0390911681526020016101af565b6101cb6102f7366004611e35565b6108d2565b6101cb61030a366004611fba565b6108fd565b6101a5600081565b61020e61032536600461202b565b61095b565b6101ee610966565b6101a57f9f2df0fed2c77648de5860a4cc508cd0818c85b8b8a1ab4ceeef8d981c8956a681565b61020e610367366004611e35565b6109f4565b61037f61037a366004611b76565b610a19565b6040516101af9695949392919061205e565b6101cb61039f3660046120db565b610cfe565b6101ee610d6c565b6101cb6103ba3660046120f8565b6001600160a01b03918216600090815260016020908152604080832093909416825291909152205460ff1690565b61020e6103f6366004612126565b610dfe565b61020e6104093660046120db565b610e85565b60006001600160a01b03831661047f5760405162461bcd60e51b815260206004820152602b60248201527f455243313135353a2062616c616e636520717565727920666f7220746865207a60448201526a65726f206164647265737360a81b60648201526084015b60405180910390fd5b506000908152602081815260408083206001600160a01b03949094168352929052205490565b60006104b082610f50565b92915050565b60065460405163e3684e3960e01b8152600481018390526060916001600160a01b03169063e3684e3990602401600060405180830381865afa158015610500573d6000803e3d6000fd5b505050506040513d6000823e601f3d908101601f191682016040526104b0919081019061218e565b600082815260086020526040902060058101546001600160a01b03163314610562576040516282b42960e81b815260040160405180910390fd5b61057d84848460405180602001604052806000815250610f75565b50505050565b6001600160a01b03851633148061059f575061059f85336103ba565b6106065760405162461bcd60e51b815260206004820152603260248201527f455243313135353a207472616e736665722063616c6c6572206973206e6f74206044820152711bdddb995c881b9bdc88185c1c1c9bdd995960721b6064820152608401610476565b6106138585858585611089565b5050505050565b60008281526003602052604090206001015461063581611266565b61063f8383611270565b505050565b6001600160a01b03811633146106b45760405162461bcd60e51b815260206004820152602f60248201527f416363657373436f6e74726f6c3a2063616e206f6e6c792072656e6f756e636560448201526e103937b632b9903337b91039b2b63360891b6064820152608401610476565b6106be82826112f6565b5050565b606081518351146107275760405162461bcd60e51b815260206004820152602960248201527f455243313135353a206163636f756e747320616e6420696473206c656e677468604482015268040dad2e6dac2e8c6d60bb1b6064820152608401610476565b600083516001600160401b0381111561074257610742611c2f565b60405190808252806020026020018201604052801561076b578160200160208202803683370190505b50905060005b84518110156107e3576107b685828151811061078f5761078f61220f565b60200260200101518583815181106107a9576107a961220f565b602002602001015161040e565b8282815181106107c8576107c861220f565b60209081029190910101526107dc8161223b565b9050610771565b509392505050565b6004546001600160a01b031633146108455760405162461bcd60e51b815260206004820181905260248201527f4f776e61626c653a2063616c6c6572206973206e6f7420746865206f776e65726044820152606401610476565b61084f600061135d565b565b6000610861600780546001019055565b600061086c60075490565b6000818152600860205260409020909150849061088982826123ed565b5050600081815260086020908152604080832060050180546001600160a01b0319163390811790915581519283019091529181526108cb919083908690610f75565b9392505050565b60009182526003602090815260408084206001600160a01b0393909316845291905290205460ff1690565b60006109297fa49807205ce4d355092ef5a8a18f56e8913cf4a201fbe287825b095693c21775336108d2565b610945576040516282b42960e81b815260040160405180910390fd5b61095160058484611a69565b5060019392505050565b6106be3383836113af565b60058054610973906122a1565b80601f016020809104026020016040519081016040528092919081815260200182805461099f906122a1565b80156109ec5780601f106109c1576101008083540402835291602001916109ec565b820191906000526020600020905b8154815290600101906020018083116109cf57829003601f168201915b505050505081565b600082815260036020526040902060010154610a0f81611266565b61063f83836112f6565b600860205260009081526040902080548190610a34906122a1565b80601f0160208091040260200160405190810160405280929190818152602001828054610a60906122a1565b8015610aad5780601f10610a8257610100808354040283529160200191610aad565b820191906000526020600020905b815481529060010190602001808311610a9057829003601f168201915b505050505090806001018054610ac2906122a1565b80601f0160208091040260200160405190810160405280929190818152602001828054610aee906122a1565b8015610b3b5780601f10610b1057610100808354040283529160200191610b3b565b820191906000526020600020905b815481529060010190602001808311610b1e57829003601f168201915b505050505090806002018054610b50906122a1565b80601f0160208091040260200160405190810160405280929190818152602001828054610b7c906122a1565b8015610bc95780601f10610b9e57610100808354040283529160200191610bc9565b820191906000526020600020905b815481529060010190602001808311610bac57829003601f168201915b505050505090806003018054610bde906122a1565b80601f0160208091040260200160405190810160405280929190818152602001828054610c0a906122a1565b8015610c575780601f10610c2c57610100808354040283529160200191610c57565b820191906000526020600020905b815481529060010190602001808311610c3a57829003601f168201915b505050505090806004018054610c6c906122a1565b80601f0160208091040260200160405190810160405280929190818152602001828054610c98906122a1565b8015610ce55780601f10610cba57610100808354040283529160200191610ce5565b820191906000526020600020905b815481529060010190602001808311610cc857829003601f168201915b505050600590930154919250506001600160a01b031686565b6000610d2a7fa49807205ce4d355092ef5a8a18f56e8913cf4a201fbe287825b095693c21775336108d2565b610d46576040516282b42960e81b815260040160405180910390fd5b50600680546001600160a01b0319166001600160a01b0392909216919091179055600190565b606060058054610d7b906122a1565b80601f0160208091040260200160405190810160405280929190818152602001828054610da7906122a1565b8015610df45780601f10610dc957610100808354040283529160200191610df4565b820191906000526020600020905b815481529060010190602001808311610dd757829003601f168201915b5050505050905090565b6001600160a01b038516331480610e1a5750610e1a85336103ba565b610e785760405162461bcd60e51b815260206004820152602960248201527f455243313135353a2063616c6c6572206973206e6f74206f776e6572206e6f7260448201526808185c1c1c9bdd995960ba1b6064820152608401610476565b610613858585858561148f565b6004546001600160a01b03163314610edf5760405162461bcd60e51b815260206004820181905260248201527f4f776e61626c653a2063616c6c6572206973206e6f7420746865206f776e65726044820152606401610476565b6001600160a01b038116610f445760405162461bcd60e51b815260206004820152602660248201527f4f776e61626c653a206e6577206f776e657220697320746865207a65726f206160448201526564647265737360d01b6064820152608401610476565b610f4d8161135d565b50565b60006001600160e01b03198216637965db0b60e01b14806104b057506104b0826115b9565b6001600160a01b038416610fd55760405162461bcd60e51b815260206004820152602160248201527f455243313135353a206d696e7420746f20746865207a65726f206164647265736044820152607360f81b6064820152608401610476565b336000610fe185611609565b90506000610fee85611609565b90506000868152602081815260408083206001600160a01b038b1684529091528120805487929061102090849061255b565b909155505060408051878152602081018790526001600160a01b03808a1692600092918716917fc3d58168c5ae7397731d063d5bbf3d657854427343f4c083240f7aacaa2d0f62910160405180910390a461108083600089898989611654565b50505050505050565b81518351146110eb5760405162461bcd60e51b815260206004820152602860248201527f455243313135353a2069647320616e6420616d6f756e7473206c656e677468206044820152670dad2e6dac2e8c6d60c31b6064820152608401610476565b6001600160a01b0384166111115760405162461bcd60e51b815260040161047690612573565b3360005b84518110156111f85760008582815181106111325761113261220f565b6020026020010151905060008583815181106111505761115061220f565b602090810291909101810151600084815280835260408082206001600160a01b038e1683529093529190912054909150818110156111a05760405162461bcd60e51b8152600401610476906125b8565b6000838152602081815260408083206001600160a01b038e8116855292528083208585039055908b168252812080548492906111dd90849061255b565b92505081905550505050806111f19061223b565b9050611115565b50846001600160a01b0316866001600160a01b0316826001600160a01b03167f4a39dc06d4c0dbc64b70af90fd698a233a518aa5d07e595d983b8c0526c8f7fb8787604051611248929190612602565b60405180910390a461125e8187878787876117af565b505050505050565b610f4d813361186a565b61127a82826108d2565b6106be5760008281526003602090815260408083206001600160a01b03851684529091529020805460ff191660011790556112b23390565b6001600160a01b0316816001600160a01b0316837f2f8788117e7eff1d82e926ec794901d17c78024a50270940304540a733656f0d60405160405180910390a45050565b61130082826108d2565b156106be5760008281526003602090815260408083206001600160a01b0385168085529252808320805460ff1916905551339285917ff6391f5c32d9c69d2a47ea670b442974b53935d1edc7fd64eb21e047a839171b9190a45050565b600480546001600160a01b038381166001600160a01b0319831681179093556040519116919082907f8be0079c531659141344cd1fd0a4f28419497f9722a3daafe3b4186f6b6457e090600090a35050565b816001600160a01b0316836001600160a01b0316036114225760405162461bcd60e51b815260206004820152602960248201527f455243313135353a2073657474696e6720617070726f76616c20737461747573604482015268103337b91039b2b63360b91b6064820152608401610476565b6001600160a01b03838116600081815260016020908152604080832094871680845294825291829020805460ff191686151590811790915591519182527f17307eab39ab6107e8899845ad3d59bd9653f200f220920489ca2b5937696c31910160405180910390a3505050565b6001600160a01b0384166114b55760405162461bcd60e51b815260040161047690612573565b3360006114c185611609565b905060006114ce85611609565b90506000868152602081815260408083206001600160a01b038c168452909152902054858110156115115760405162461bcd60e51b8152600401610476906125b8565b6000878152602081815260408083206001600160a01b038d8116855292528083208985039055908a1682528120805488929061154e90849061255b565b909155505060408051888152602081018890526001600160a01b03808b16928c821692918816917fc3d58168c5ae7397731d063d5bbf3d657854427343f4c083240f7aacaa2d0f62910160405180910390a46115ae848a8a8a8a8a611654565b505050505050505050565b60006001600160e01b03198216636cdb3d1360e11b14806115ea57506001600160e01b031982166303a24d0760e21b145b806104b057506301ffc9a760e01b6001600160e01b03198316146104b0565b604080516001808252818301909252606091600091906020808301908036833701905050905082816000815181106116435761164361220f565b602090810291909101015292915050565b6001600160a01b0384163b1561125e5760405163f23a6e6160e01b81526001600160a01b0385169063f23a6e61906116989089908990889088908890600401612630565b6020604051808303816000875af19250505080156116d3575060408051601f3d908101601f191682019092526116d091810190612675565b60015b61177f576116df612692565b806308c379a00361171857506116f36126ae565b806116fe575061171a565b8060405162461bcd60e51b81526004016104769190611be7565b505b60405162461bcd60e51b815260206004820152603460248201527f455243313135353a207472616e7366657220746f206e6f6e20455243313135356044820152732932b1b2b4bb32b91034b6b83632b6b2b73a32b960611b6064820152608401610476565b6001600160e01b0319811663f23a6e6160e01b146110805760405162461bcd60e51b815260040161047690612737565b6001600160a01b0384163b1561125e5760405163bc197c8160e01b81526001600160a01b0385169063bc197c81906117f3908990899088908890889060040161277f565b6020604051808303816000875af192505050801561182e575060408051601f3d908101601f1916820190925261182b91810190612675565b60015b61183a576116df612692565b6001600160e01b0319811663bc197c8160e01b146110805760405162461bcd60e51b815260040161047690612737565b61187482826108d2565b6106be5761188c816001600160a01b031660146118ce565b6118978360206118ce565b6040516020016118a89291906127dd565b60408051601f198184030181529082905262461bcd60e51b825261047691600401611be7565b606060006118dd836002612852565b6118e890600261255b565b6001600160401b038111156118ff576118ff611c2f565b6040519080825280601f01601f191660200182016040528015611929576020820181803683370190505b509050600360fc1b816000815181106119445761194461220f565b60200101906001600160f81b031916908160001a905350600f60fb1b816001815181106119735761197361220f565b60200101906001600160f81b031916908160001a9053506000611997846002612852565b6119a290600161255b565b90505b6001811115611a1a576f181899199a1a9b1b9c1cb0b131b232b360811b85600f16601081106119d6576119d661220f565b1a60f81b8282815181106119ec576119ec61220f565b60200101906001600160f81b031916908160001a90535060049490941c93611a1381612871565b90506119a5565b5083156108cb5760405162461bcd60e51b815260206004820181905260248201527f537472696e67733a20686578206c656e67746820696e73756666696369656e746044820152606401610476565b828054611a75906122a1565b90600052602060002090601f016020900481019282611a975760008555611add565b82601f10611ab05782800160ff19823516178555611add565b82800160010185558215611add579182015b82811115611add578235825591602001919060010190611ac2565b50611ae9929150611aed565b5090565b5b80821115611ae95760008155600101611aee565b6001600160a01b0381168114610f4d57600080fd5b60008060408385031215611b2a57600080fd5b8235611b3581611b02565b946020939093013593505050565b6001600160e01b031981168114610f4d57600080fd5b600060208284031215611b6b57600080fd5b81356108cb81611b43565b600060208284031215611b8857600080fd5b5035919050565b60005b83811015611baa578181015183820152602001611b92565b8381111561057d5750506000910152565b60008151808452611bd3816020860160208601611b8f565b601f01601f19169290920160200192915050565b6020815260006108cb6020830184611bbb565b600080600060608486031215611c0f57600080fd5b8335611c1a81611b02565b95602085013595506040909401359392505050565b634e487b7160e01b600052604160045260246000fd5b601f8201601f191681016001600160401b0381118282101715611c6a57611c6a611c2f565b6040525050565b60006001600160401b03821115611c8a57611c8a611c2f565b5060051b60200190565b600082601f830112611ca557600080fd5b81356020611cb282611c71565b604051611cbf8282611c45565b83815260059390931b8501820192828101915086841115611cdf57600080fd5b8286015b84811015611cfa5780358352918301918301611ce3565b509695505050505050565b60006001600160401b03821115611d1e57611d1e611c2f565b50601f01601f191660200190565b600082601f830112611d3d57600080fd5b8135611d4881611d05565b604051611d558282611c45565b828152856020848701011115611d6a57600080fd5b82602086016020830137600092810160200192909252509392505050565b600080600080600060a08688031215611da057600080fd5b8535611dab81611b02565b94506020860135611dbb81611b02565b935060408601356001600160401b0380821115611dd757600080fd5b611de389838a01611c94565b94506060880135915080821115611df957600080fd5b611e0589838a01611c94565b93506080880135915080821115611e1b57600080fd5b50611e2888828901611d2c565b9150509295509295909350565b60008060408385031215611e4857600080fd5b823591506020830135611e5a81611b02565b809150509250929050565b60008060408385031215611e7857600080fd5b82356001600160401b0380821115611e8f57600080fd5b818501915085601f830112611ea357600080fd5b81356020611eb082611c71565b604051611ebd8282611c45565b83815260059390931b8501820192828101915089841115611edd57600080fd5b948201945b83861015611f04578535611ef581611b02565b82529482019490820190611ee2565b96505086013592505080821115611f1a57600080fd5b50611f2785828601611c94565b9150509250929050565b600081518084526020808501945080840160005b83811015611f6157815187529582019590820190600101611f45565b509495945050505050565b6020815260006108cb6020830184611f31565b60008060408385031215611f9257600080fd5b82356001600160401b03811115611fa857600080fd5b830160c08186031215611b3557600080fd5b60008060208385031215611fcd57600080fd5b82356001600160401b0380821115611fe457600080fd5b818501915085601f830112611ff857600080fd5b81358181111561200757600080fd5b86602082850101111561201957600080fd5b60209290920196919550909350505050565b6000806040838503121561203e57600080fd5b823561204981611b02565b915060208301358015158114611e5a57600080fd5b60c08152600061207160c0830189611bbb565b82810360208401526120838189611bbb565b905082810360408401526120978188611bbb565b905082810360608401526120ab8187611bbb565b905082810360808401526120bf8186611bbb565b91505060018060a01b03831660a0830152979650505050505050565b6000602082840312156120ed57600080fd5b81356108cb81611b02565b6000806040838503121561210b57600080fd5b823561211681611b02565b91506020830135611e5a81611b02565b600080600080600060a0868803121561213e57600080fd5b853561214981611b02565b9450602086013561215981611b02565b9350604086013592506060860135915060808601356001600160401b0381111561218257600080fd5b611e2888828901611d2c565b6000602082840312156121a057600080fd5b81516001600160401b038111156121b657600080fd5b8201601f810184136121c757600080fd5b80516121d281611d05565b6040516121df8282611c45565b8281528660208486010111156121f457600080fd5b612205836020830160208701611b8f565b9695505050505050565b634e487b7160e01b600052603260045260246000fd5b634e487b7160e01b600052601160045260246000fd5b60006001820161224d5761224d612225565b5060010190565b6000808335601e1984360301811261226b57600080fd5b8301803591506001600160401b0382111561228557600080fd5b60200191503681900382131561229a57600080fd5b9250929050565b600181811c908216806122b557607f821691505b6020821081036122d557634e487b7160e01b600052602260045260246000fd5b50919050565b601f82111561063f57600081815260208120601f850160051c810160208610156123025750805b601f850160051c820191505b8181101561125e5782815560010161230e565b6001600160401b0383111561233857612338611c2f565b61234c8361234683546122a1565b836122db565b6000601f84116001811461238057600085156123685750838201355b600019600387901b1c1916600186901b178355610613565b600083815260209020601f19861690835b828110156123b15786850135825560209485019460019092019101612391565b50868210156123ce5760001960f88860031b161c19848701351681555b505060018560011b0183555050505050565b600081356104b081611b02565b6123f78283612254565b6001600160401b0381111561240e5761240e611c2f565b6124228161241c85546122a1565b856122db565b6000601f821160018114612456576000831561243e5750838201355b600019600385901b1c1916600184901b1785556124b0565b600085815260209020601f19841690835b828110156124875786850135825560209485019460019092019101612467565b50848210156124a45760001960f88660031b161c19848701351681555b505060018360011b0185555b505050506124c16020830183612254565b6124cf818360018601612321565b50506124de6040830183612254565b6124ec818360028601612321565b50506124fb6060830183612254565b612509818360038601612321565b50506125186080830183612254565b612526818360048601612321565b50506106be61253760a084016123e0565b6005830180546001600160a01b0319166001600160a01b0392909216919091179055565b6000821982111561256e5761256e612225565b500190565b60208082526025908201527f455243313135353a207472616e7366657220746f20746865207a65726f206164604082015264647265737360d81b606082015260800190565b6020808252602a908201527f455243313135353a20696e73756666696369656e742062616c616e636520666f60408201526939103a3930b739b332b960b11b606082015260800190565b6040815260006126156040830185611f31565b82810360208401526126278185611f31565b95945050505050565b6001600160a01b03868116825285166020820152604081018490526060810183905260a06080820181905260009061266a90830184611bbb565b979650505050505050565b60006020828403121561268757600080fd5b81516108cb81611b43565b600060033d11156126ab5760046000803e5060005160e01c5b90565b600060443d10156126bc5790565b6040516003193d81016004833e81513d6001600160401b0381602484011181841117156126eb57505050505090565b82850191508151818111156127035750505050505090565b843d870101602082850101111561271d5750505050505090565b61272c60208286010187611c45565b509095945050505050565b60208082526028908201527f455243313135353a204552433131353552656365697665722072656a656374656040820152676420746f6b656e7360c01b606082015260800190565b6001600160a01b0386811682528516602082015260a0604082018190526000906127ab90830186611f31565b82810360608401526127bd8186611f31565b905082810360808401526127d18185611bbb565b98975050505050505050565b7f416363657373436f6e74726f6c3a206163636f756e7420000000000000000000815260008351612815816017850160208801611b8f565b7001034b99036b4b9b9b4b733903937b6329607d1b6017918401918201528351612846816028840160208801611b8f565b01602801949350505050565b600081600019048311821515161561286c5761286c612225565b500290565b60008161288057612880612225565b50600019019056fea264697066735822122092feeebbc7965243e03af72a33b0ef4835fa6cc64114718df620acd28664a79064736f6c634300080e003368747470733a2f2f62616467652d6f662d617373656d626c792e6e65746c6966792e6170702f6170692f626f61",
  "devdoc": {
    "kind": "dev",
    "methods": {
      "balanceOf(address,uint256)": {
        "details": "See {IERC1155-balanceOf}. Requirements: - `account` cannot be the zero address."
      },
      "balanceOfBatch(address[],uint256[])": {
        "details": "See {IERC1155-balanceOfBatch}. Requirements: - `accounts` and `ids` must have the same length."
      },
      "getRoleAdmin(bytes32)": {
        "details": "Returns the admin role that controls `role`. See {grantRole} and {revokeRole}. To change a role's admin, use {_setRoleAdmin}."
      },
      "grantRole(bytes32,address)": {
        "details": "Grants `role` to `account`. If `account` had not been already granted `role`, emits a {RoleGranted} event. Requirements: - the caller must have ``role``'s admin role."
      },
      "hasRole(bytes32,address)": {
        "details": "Returns `true` if `account` has been granted `role`."
      },
      "isApprovedForAll(address,address)": {
        "details": "See {IERC1155-isApprovedForAll}."
      },
      "owner()": {
        "details": "Returns the address of the current owner."
      },
      "renounceOwnership()": {
        "details": "Leaves the contract without owner. It will not be possible to call `onlyOwner` functions anymore. Can only be called by the current owner. NOTE: Renouncing ownership will leave the contract without an owner, thereby removing any functionality that is only available to the owner."
      },
      "renounceRole(bytes32,address)": {
        "details": "Revokes `role` from the calling account. Roles are often managed via {grantRole} and {revokeRole}: this function's purpose is to provide a mechanism for accounts to lose their privileges if they are compromised (such as when a trusted device is misplaced). If the calling account had been revoked `role`, emits a {RoleRevoked} event. Requirements: - the caller must be `account`."
      },
      "revokeRole(bytes32,address)": {
        "details": "Revokes `role` from `account`. If `account` had been granted `role`, emits a {RoleRevoked} event. Requirements: - the caller must have ``role``'s admin role."
      },
      "safeBatchTransferFrom(address,address,uint256[],uint256[],bytes)": {
        "details": "See {IERC1155-safeBatchTransferFrom}."
      },
      "safeTransferFrom(address,address,uint256,uint256,bytes)": {
        "details": "See {IERC1155-safeTransferFrom}."
      },
      "setApprovalForAll(address,bool)": {
        "details": "See {IERC1155-setApprovalForAll}."
      },
      "supportsInterface(bytes4)": {
        "details": "See {IERC165-supportsInterface}."
      },
      "transferOwnership(address)": {
        "details": "Transfers ownership of the contract to a new account (`newOwner`). Can only be called by the current owner."
      }
    },
    "version": 1
  },
  "userdoc": {
    "kind": "user",
    "methods": {},
    "version": 1
  },
  "storageLayout": {
    "storage": [
      {
        "astId": 523,
        "contract": "contracts/BadgeOfAssembly.sol:BadgeOfAssembly",
        "label": "_balances",
        "offset": 0,
        "slot": "0",
        "type": "t_mapping(t_uint256,t_mapping(t_address,t_uint256))"
      },
      {
        "astId": 529,
        "contract": "contracts/BadgeOfAssembly.sol:BadgeOfAssembly",
        "label": "_operatorApprovals",
        "offset": 0,
        "slot": "1",
        "type": "t_mapping(t_address,t_mapping(t_address,t_bool))"
      },
      {
        "astId": 531,
        "contract": "contracts/BadgeOfAssembly.sol:BadgeOfAssembly",
        "label": "_uri",
        "offset": 0,
        "slot": "2",
        "type": "t_string_storage"
      },
      {
        "astId": 24,
        "contract": "contracts/BadgeOfAssembly.sol:BadgeOfAssembly",
        "label": "_roles",
        "offset": 0,
        "slot": "3",
        "type": "t_mapping(t_bytes32,t_struct(RoleData)19_storage)"
      },
      {
        "astId": 400,
        "contract": "contracts/BadgeOfAssembly.sol:BadgeOfAssembly",
        "label": "_owner",
        "offset": 0,
        "slot": "4",
        "type": "t_address"
      },
      {
        "astId": 2620,
        "contract": "contracts/BadgeOfAssembly.sol:BadgeOfAssembly",
        "label": "_contractURI",
        "offset": 0,
        "slot": "5",
        "type": "t_string_storage"
      },
      {
        "astId": 2623,
        "contract": "contracts/BadgeOfAssembly.sol:BadgeOfAssembly",
        "label": "_metadataPrinter",
        "offset": 0,
        "slot": "6",
        "type": "t_contract(IMetadataPrinter)2971"
      },
      {
        "astId": 2626,
        "contract": "contracts/BadgeOfAssembly.sol:BadgeOfAssembly",
        "label": "_tokenId",
        "offset": 0,
        "slot": "7",
        "type": "t_struct(Counter)2268_storage"
      },
      {
        "astId": 2631,
        "contract": "contracts/BadgeOfAssembly.sol:BadgeOfAssembly",
        "label": "metadata",
        "offset": 0,
        "slot": "8",
        "type": "t_mapping(t_uint256,t_struct(BadgeMetadata)2607_storage)"
      }
    ],
    "types": {
      "t_address": {
        "encoding": "inplace",
        "label": "address",
        "numberOfBytes": "20"
      },
      "t_bool": {
        "encoding": "inplace",
        "label": "bool",
        "numberOfBytes": "1"
      },
      "t_bytes32": {
        "encoding": "inplace",
        "label": "bytes32",
        "numberOfBytes": "32"
      },
      "t_contract(IMetadataPrinter)2971": {
        "encoding": "inplace",
        "label": "contract IMetadataPrinter",
        "numberOfBytes": "20"
      },
      "t_mapping(t_address,t_bool)": {
        "encoding": "mapping",
        "key": "t_address",
        "label": "mapping(address => bool)",
        "numberOfBytes": "32",
        "value": "t_bool"
      },
      "t_mapping(t_address,t_mapping(t_address,t_bool))": {
        "encoding": "mapping",
        "key": "t_address",
        "label": "mapping(address => mapping(address => bool))",
        "numberOfBytes": "32",
        "value": "t_mapping(t_address,t_bool)"
      },
      "t_mapping(t_address,t_uint256)": {
        "encoding": "mapping",
        "key": "t_address",
        "label": "mapping(address => uint256)",
        "numberOfBytes": "32",
        "value": "t_uint256"
      },
      "t_mapping(t_bytes32,t_struct(RoleData)19_storage)": {
        "encoding": "mapping",
        "key": "t_bytes32",
        "label": "mapping(bytes32 => struct AccessControl.RoleData)",
        "numberOfBytes": "32",
        "value": "t_struct(RoleData)19_storage"
      },
      "t_mapping(t_uint256,t_mapping(t_address,t_uint256))": {
        "encoding": "mapping",
        "key": "t_uint256",
        "label": "mapping(uint256 => mapping(address => uint256))",
        "numberOfBytes": "32",
        "value": "t_mapping(t_address,t_uint256)"
      },
      "t_mapping(t_uint256,t_struct(BadgeMetadata)2607_storage)": {
        "encoding": "mapping",
        "key": "t_uint256",
        "label": "mapping(uint256 => struct BadgeOfAssembly.BadgeMetadata)",
        "numberOfBytes": "32",
        "value": "t_struct(BadgeMetadata)2607_storage"
      },
      "t_string_storage": {
        "encoding": "bytes",
        "label": "string",
        "numberOfBytes": "32"
      },
      "t_struct(BadgeMetadata)2607_storage": {
        "encoding": "inplace",
        "label": "struct BadgeOfAssembly.BadgeMetadata",
        "members": [
          {
            "astId": 2596,
            "contract": "contracts/BadgeOfAssembly.sol:BadgeOfAssembly",
            "label": "name",
            "offset": 0,
            "slot": "0",
            "type": "t_string_storage"
          },
          {
            "astId": 2598,
            "contract": "contracts/BadgeOfAssembly.sol:BadgeOfAssembly",
            "label": "description",
            "offset": 0,
            "slot": "1",
            "type": "t_string_storage"
          },
          {
            "astId": 2600,
            "contract": "contracts/BadgeOfAssembly.sol:BadgeOfAssembly",
            "label": "image",
            "offset": 0,
            "slot": "2",
            "type": "t_string_storage"
          },
          {
            "astId": 2602,
            "contract": "contracts/BadgeOfAssembly.sol:BadgeOfAssembly",
            "label": "animationUrl",
            "offset": 0,
            "slot": "3",
            "type": "t_string_storage"
          },
          {
            "astId": 2604,
            "contract": "contracts/BadgeOfAssembly.sol:BadgeOfAssembly",
            "label": "youtubeUrl",
            "offset": 0,
            "slot": "4",
            "type": "t_string_storage"
          },
          {
            "astId": 2606,
            "contract": "contracts/BadgeOfAssembly.sol:BadgeOfAssembly",
            "label": "minter",
            "offset": 0,
            "slot": "5",
            "type": "t_address"
          }
        ],
        "numberOfBytes": "192"
      },
      "t_struct(Counter)2268_storage": {
        "encoding": "inplace",
        "label": "struct Counters.Counter",
        "members": [
          {
            "astId": 2267,
            "contract": "contracts/BadgeOfAssembly.sol:BadgeOfAssembly",
            "label": "_value",
            "offset": 0,
            "slot": "0",
            "type": "t_uint256"
          }
        ],
        "numberOfBytes": "32"
      },
      "t_struct(RoleData)19_storage": {
        "encoding": "inplace",
        "label": "struct AccessControl.RoleData",
        "members": [
          {
            "astId": 16,
            "contract": "contracts/BadgeOfAssembly.sol:BadgeOfAssembly",
            "label": "members",
            "offset": 0,
            "slot": "0",
            "type": "t_mapping(t_address,t_bool)"
          },
          {
            "astId": 18,
            "contract": "contracts/BadgeOfAssembly.sol:BadgeOfAssembly",
            "label": "adminRole",
            "offset": 0,
            "slot": "1",
            "type": "t_bytes32"
          }
        ],
        "numberOfBytes": "64"
      },
      "t_uint256": {
        "encoding": "inplace",
        "label": "uint256",
        "numberOfBytes": "32"
      }
    }
  }
}